{
  "_format": "hh-sol-artifact-1",
  "contractName": "MerkleAirdrop",
  "sourceName": "contracts/MerkleAirdrop.sol",
  "abi": [
    {
      "inputs": [
        {
          "internalType": "address",
          "name": "_token",
          "type": "address"
        },
        {
          "internalType": "bytes32",
          "name": "_merkleRoot",
          "type": "bytes32"
        }
      ],
      "stateMutability": "nonpayable",
      "type": "constructor"
    },
    {
      "inputs": [
        {
          "internalType": "address",
          "name": "owner",
          "type": "address"
        }
      ],
      "name": "OwnableInvalidOwner",
      "type": "error"
    },
    {
      "inputs": [
        {
          "internalType": "address",
          "name": "account",
          "type": "address"
        }
      ],
      "name": "OwnableUnauthorizedAccount",
      "type": "error"
    },
    {
      "anonymous": false,
      "inputs": [
        {
          "indexed": true,
          "internalType": "address",
          "name": "account",
          "type": "address"
        },
        {
          "indexed": false,
          "internalType": "uint256",
          "name": "amount",
          "type": "uint256"
        }
      ],
      "name": "Claimed",
      "type": "event"
    },
    {
      "anonymous": false,
      "inputs": [
        {
          "indexed": true,
          "internalType": "address",
          "name": "previousOwner",
          "type": "address"
        },
        {
          "indexed": true,
          "internalType": "address",
          "name": "newOwner",
          "type": "address"
        }
      ],
      "name": "OwnershipTransferred",
      "type": "event"
    },
    {
      "inputs": [
        {
          "internalType": "uint256",
          "name": "amount",
          "type": "uint256"
        },
        {
          "internalType": "bytes32[]",
          "name": "merkleProof",
          "type": "bytes32[]"
        }
      ],
      "name": "claim",
      "outputs": [],
      "stateMutability": "nonpayable",
      "type": "function"
    },
    {
      "inputs": [
        {
          "internalType": "address",
          "name": "",
          "type": "address"
        }
      ],
      "name": "claimed",
      "outputs": [
        {
          "internalType": "bool",
          "name": "",
          "type": "bool"
        }
      ],
      "stateMutability": "view",
      "type": "function"
    },
    {
      "inputs": [],
      "name": "merkleRoot",
      "outputs": [
        {
          "internalType": "bytes32",
          "name": "",
          "type": "bytes32"
        }
      ],
      "stateMutability": "view",
      "type": "function"
    },
    {
      "inputs": [],
      "name": "owner",
      "outputs": [
        {
          "internalType": "address",
          "name": "",
          "type": "address"
        }
      ],
      "stateMutability": "view",
      "type": "function"
    },
    {
      "inputs": [],
      "name": "renounceOwnership",
      "outputs": [],
      "stateMutability": "nonpayable",
      "type": "function"
    },
    {
      "inputs": [],
      "name": "token",
      "outputs": [
        {
          "internalType": "contract IERC20",
          "name": "",
          "type": "address"
        }
      ],
      "stateMutability": "view",
      "type": "function"
    },
    {
      "inputs": [
        {
          "internalType": "address",
          "name": "newOwner",
          "type": "address"
        }
      ],
      "name": "transferOwnership",
      "outputs": [],
      "stateMutability": "nonpayable",
      "type": "function"
    },
    {
      "inputs": [
        {
          "internalType": "bytes32",
          "name": "newMerkleRoot",
          "type": "bytes32"
        }
      ],
      "name": "updateMerkleRoot",
      "outputs": [],
      "stateMutability": "nonpayable",
      "type": "function"
    },
    {
      "inputs": [
        {
          "internalType": "address",
          "name": "recipient",
          "type": "address"
        }
      ],
      "name": "withdrawTokens",
      "outputs": [],
      "stateMutability": "nonpayable",
      "type": "function"
    }
  ],
  "bytecode": "0x60806040523480156200001157600080fd5b506040516200124738038062001247833981810160405281019062000037919062000278565b33600073ffffffffffffffffffffffffffffffffffffffff168173ffffffffffffffffffffffffffffffffffffffff1603620000ad5760006040517f1e4fbdf7000000000000000000000000000000000000000000000000000000008152600401620000a49190620002d0565b60405180910390fd5b620000be816200010f60201b60201c565b5081600260006101000a81548173ffffffffffffffffffffffffffffffffffffffff021916908373ffffffffffffffffffffffffffffffffffffffff160217905550806001819055505050620002ed565b60008060009054906101000a900473ffffffffffffffffffffffffffffffffffffffff169050816000806101000a81548173ffffffffffffffffffffffffffffffffffffffff021916908373ffffffffffffffffffffffffffffffffffffffff1602179055508173ffffffffffffffffffffffffffffffffffffffff168173ffffffffffffffffffffffffffffffffffffffff167f8be0079c531659141344cd1fd0a4f28419497f9722a3daafe3b4186f6b6457e060405160405180910390a35050565b600080fd5b600073ffffffffffffffffffffffffffffffffffffffff82169050919050565b60006200020582620001d8565b9050919050565b6200021781620001f8565b81146200022357600080fd5b50565b60008151905062000237816200020c565b92915050565b6000819050919050565b62000252816200023d565b81146200025e57600080fd5b50565b600081519050620002728162000247565b92915050565b60008060408385031215620002925762000291620001d3565b5b6000620002a28582860162000226565b9250506020620002b58582860162000261565b9150509250929050565b620002ca81620001f8565b82525050565b6000602082019050620002e76000830184620002bf565b92915050565b610f4a80620002fd6000396000f3fe608060405234801561001057600080fd5b50600436106100935760003560e01c8063715018a611610066578063715018a61461010a5780638da5cb5b14610114578063c884ef8314610132578063f2fde38b14610162578063fc0c546a1461017e57610093565b80632eb4a7ab146100985780632f52ebb7146100b65780634783f0ef146100d257806349df728c146100ee575b600080fd5b6100a061019c565b6040516100ad919061092f565b60405180910390f35b6100d060048036038101906100cb91906109ef565b6101a2565b005b6100ec60048036038101906100e79190610a7b565b610474565b005b61010860048036038101906101039190610b06565b610486565b005b610112610611565b005b61011c610625565b6040516101299190610b42565b60405180910390f35b61014c60048036038101906101479190610b06565b61064e565b6040516101599190610b78565b60405180910390f35b61017c60048036038101906101779190610b06565b61066e565b005b6101866106f4565b6040516101939190610bf2565b60405180910390f35b60015481565b600360003373ffffffffffffffffffffffffffffffffffffffff1673ffffffffffffffffffffffffffffffffffffffff16815260200190815260200160002060009054906101000a900460ff161561022f576040517f08c379a000000000000000000000000000000000000000000000000000000000815260040161022690610c6a565b60405180910390fd5b60003384604051602001610244929190610cf3565b6040516020818303038152906040528051906020012090506102aa838380806020026020016040519081016040528093929190818152602001838360200280828437600081840152601f19601f820116905080830192505050505050506001548361071a565b6102e9576040517f08c379a00000000000000000000000000000000000000000000000000000000081526004016102e090610d6b565b60405180910390fd5b6001600360003373ffffffffffffffffffffffffffffffffffffffff1673ffffffffffffffffffffffffffffffffffffffff16815260200190815260200160002060006101000a81548160ff021916908315150217905550600260009054906101000a900473ffffffffffffffffffffffffffffffffffffffff1673ffffffffffffffffffffffffffffffffffffffff1663a9059cbb33866040518363ffffffff1660e01b815260040161039e929190610d9a565b6020604051808303816000875af11580156103bd573d6000803e3d6000fd5b505050506040513d601f19601f820116820180604052508101906103e19190610def565b610420576040517f08c379a000000000000000000000000000000000000000000000000000000000815260040161041790610e68565b60405180910390fd5b3373ffffffffffffffffffffffffffffffffffffffff167fd8138f8a3f377c5259ca548e70e4c2de94f129f5a11036a15b69513cba2b426a856040516104669190610e88565b60405180910390a250505050565b61047c610731565b8060018190555050565b61048e610731565b6000600260009054906101000a900473ffffffffffffffffffffffffffffffffffffffff1673ffffffffffffffffffffffffffffffffffffffff166370a08231306040518263ffffffff1660e01b81526004016104eb9190610b42565b602060405180830381865afa158015610508573d6000803e3d6000fd5b505050506040513d601f19601f8201168201806040525081019061052c9190610eb8565b9050600260009054906101000a900473ffffffffffffffffffffffffffffffffffffffff1673ffffffffffffffffffffffffffffffffffffffff1663a9059cbb83836040518363ffffffff1660e01b815260040161058b929190610d9a565b6020604051808303816000875af11580156105aa573d6000803e3d6000fd5b505050506040513d601f19601f820116820180604052508101906105ce9190610def565b61060d576040517f08c379a000000000000000000000000000000000000000000000000000000000815260040161060490610e68565b60405180910390fd5b5050565b610619610731565b61062360006107b8565b565b60008060009054906101000a900473ffffffffffffffffffffffffffffffffffffffff16905090565b60036020528060005260406000206000915054906101000a900460ff1681565b610676610731565b600073ffffffffffffffffffffffffffffffffffffffff168173ffffffffffffffffffffffffffffffffffffffff16036106e85760006040517f1e4fbdf70000000000000000000000000000000000000000000000000000000081526004016106df9190610b42565b60405180910390fd5b6106f1816107b8565b50565b600260009054906101000a900473ffffffffffffffffffffffffffffffffffffffff1681565b600082610727858461087c565b1490509392505050565b6107396108cc565b73ffffffffffffffffffffffffffffffffffffffff16610757610625565b73ffffffffffffffffffffffffffffffffffffffff16146107b65761077a6108cc565b6040517f118cdaa70000000000000000000000000000000000000000000000000000000081526004016107ad9190610b42565b60405180910390fd5b565b60008060009054906101000a900473ffffffffffffffffffffffffffffffffffffffff169050816000806101000a81548173ffffffffffffffffffffffffffffffffffffffff021916908373ffffffffffffffffffffffffffffffffffffffff1602179055508173ffffffffffffffffffffffffffffffffffffffff168173ffffffffffffffffffffffffffffffffffffffff167f8be0079c531659141344cd1fd0a4f28419497f9722a3daafe3b4186f6b6457e060405160405180910390a35050565b60008082905060005b84518110156108c1576108b2828683815181106108a5576108a4610ee5565b5b60200260200101516108d4565b91508080600101915050610885565b508091505092915050565b600033905090565b60008183106108ec576108e782846108ff565b6108f7565b6108f683836108ff565b5b905092915050565b600082600052816020526040600020905092915050565b6000819050919050565b61092981610916565b82525050565b60006020820190506109446000830184610920565b92915050565b600080fd5b600080fd5b6000819050919050565b61096781610954565b811461097257600080fd5b50565b6000813590506109848161095e565b92915050565b600080fd5b600080fd5b600080fd5b60008083601f8401126109af576109ae61098a565b5b8235905067ffffffffffffffff8111156109cc576109cb61098f565b5b6020830191508360208202830111156109e8576109e7610994565b5b9250929050565b600080600060408486031215610a0857610a0761094a565b5b6000610a1686828701610975565b935050602084013567ffffffffffffffff811115610a3757610a3661094f565b5b610a4386828701610999565b92509250509250925092565b610a5881610916565b8114610a6357600080fd5b50565b600081359050610a7581610a4f565b92915050565b600060208284031215610a9157610a9061094a565b5b6000610a9f84828501610a66565b91505092915050565b600073ffffffffffffffffffffffffffffffffffffffff82169050919050565b6000610ad382610aa8565b9050919050565b610ae381610ac8565b8114610aee57600080fd5b50565b600081359050610b0081610ada565b92915050565b600060208284031215610b1c57610b1b61094a565b5b6000610b2a84828501610af1565b91505092915050565b610b3c81610ac8565b82525050565b6000602082019050610b576000830184610b33565b92915050565b60008115159050919050565b610b7281610b5d565b82525050565b6000602082019050610b8d6000830184610b69565b92915050565b6000819050919050565b6000610bb8610bb3610bae84610aa8565b610b93565b610aa8565b9050919050565b6000610bca82610b9d565b9050919050565b6000610bdc82610bbf565b9050919050565b610bec81610bd1565b82525050565b6000602082019050610c076000830184610be3565b92915050565b600082825260208201905092915050565b7f41697264726f7020616c726561647920636c61696d65642e0000000000000000600082015250565b6000610c54601883610c0d565b9150610c5f82610c1e565b602082019050919050565b60006020820190508181036000830152610c8381610c47565b9050919050565b60008160601b9050919050565b6000610ca282610c8a565b9050919050565b6000610cb482610c97565b9050919050565b610ccc610cc782610ac8565b610ca9565b82525050565b6000819050919050565b610ced610ce882610954565b610cd2565b82525050565b6000610cff8285610cbb565b601482019150610d0f8284610cdc565b6020820191508190509392505050565b7f496e76616c69642070726f6f662e000000000000000000000000000000000000600082015250565b6000610d55600e83610c0d565b9150610d6082610d1f565b602082019050919050565b60006020820190508181036000830152610d8481610d48565b9050919050565b610d9481610954565b82525050565b6000604082019050610daf6000830185610b33565b610dbc6020830184610d8b565b9392505050565b610dcc81610b5d565b8114610dd757600080fd5b50565b600081519050610de981610dc3565b92915050565b600060208284031215610e0557610e0461094a565b5b6000610e1384828501610dda565b91505092915050565b7f546f6b656e207472616e73666572206661696c65642e00000000000000000000600082015250565b6000610e52601683610c0d565b9150610e5d82610e1c565b602082019050919050565b60006020820190508181036000830152610e8181610e45565b9050919050565b6000602082019050610e9d6000830184610d8b565b92915050565b600081519050610eb28161095e565b92915050565b600060208284031215610ece57610ecd61094a565b5b6000610edc84828501610ea3565b91505092915050565b7f4e487b7100000000000000000000000000000000000000000000000000000000600052603260045260246000fdfea2646970667358221220906f26272f852b11b38ddd8a0918bf0bb85b218e95737a05f4c189d508dc933764736f6c63430008180033",
  "linkReferences": {},
  "deployedLinkReferences": {}
}